{
  "_format": "hh-sol-artifact-1",
  "contractName": "TeePurchase",
  "sourceName": "contracts/TeePurchase.sol",
  "abi": [
    {
      "anonymous": false,
      "inputs": [
        {
          "indexed": false,
          "internalType": "address",
          "name": "from",
          "type": "address"
        },
        {
          "indexed": false,
          "internalType": "address",
          "name": "to",
          "type": "address"
        },
        {
          "indexed": false,
          "internalType": "uint256",
          "name": "teeIndex",
          "type": "uint256"
        }
      ],
      "name": "Approve",
      "type": "event"
    },
    {
      "anonymous": false,
      "inputs": [
        {
          "indexed": false,
          "internalType": "string",
          "name": "name",
          "type": "string"
        },
        {
          "indexed": false,
          "internalType": "uint256",
          "name": "design",
          "type": "uint256"
        }
      ],
      "name": "Designed",
      "type": "event"
    },
    {
      "anonymous": false,
      "inputs": [
        {
          "indexed": true,
          "internalType": "address",
          "name": "previousOwner",
          "type": "address"
        },
        {
          "indexed": true,
          "internalType": "address",
          "name": "newOwner",
          "type": "address"
        }
      ],
      "name": "OwnershipTransferred",
      "type": "event"
    },
    {
      "anonymous": false,
      "inputs": [
        {
          "indexed": false,
          "internalType": "uint256",
          "name": "teeIndex",
          "type": "uint256"
        },
        {
          "indexed": false,
          "internalType": "uint256",
          "name": "newAmount",
          "type": "uint256"
        }
      ],
      "name": "PriceChange",
      "type": "event"
    },
    {
      "anonymous": false,
      "inputs": [
        {
          "indexed": false,
          "internalType": "string",
          "name": "messaeg",
          "type": "string"
        },
        {
          "indexed": false,
          "internalType": "uint256",
          "name": "teeIndex",
          "type": "uint256"
        }
      ],
      "name": "Purchase",
      "type": "event"
    },
    {
      "anonymous": false,
      "inputs": [
        {
          "indexed": false,
          "internalType": "address",
          "name": "from",
          "type": "address"
        },
        {
          "indexed": false,
          "internalType": "address",
          "name": "to",
          "type": "address"
        },
        {
          "indexed": false,
          "internalType": "uint256",
          "name": "teeIndex",
          "type": "uint256"
        },
        {
          "indexed": false,
          "internalType": "uint256",
          "name": "amount",
          "type": "uint256"
        }
      ],
      "name": "Transfer",
      "type": "event"
    },
    {
      "stateMutability": "payable",
      "type": "fallback"
    },
    {
      "inputs": [
        {
          "internalType": "address",
          "name": "to",
          "type": "address"
        },
        {
          "internalType": "uint256",
          "name": "teeIndex",
          "type": "uint256"
        }
      ],
      "name": "approveTo",
      "outputs": [],
      "stateMutability": "nonpayable",
      "type": "function"
    },
    {
      "inputs": [
        {
          "internalType": "uint256",
          "name": "",
          "type": "uint256"
        }
      ],
      "name": "approved",
      "outputs": [
        {
          "internalType": "address",
          "name": "",
          "type": "address"
        }
      ],
      "stateMutability": "view",
      "type": "function"
    },
    {
      "inputs": [
        {
          "internalType": "uint256",
          "name": "teeIndex",
          "type": "uint256"
        }
      ],
      "name": "askForApproval",
      "outputs": [],
      "stateMutability": "nonpayable",
      "type": "function"
    },
    {
      "inputs": [
        {
          "internalType": "address payable",
          "name": "from",
          "type": "address"
        },
        {
          "internalType": "uint256",
          "name": "teeIndex",
          "type": "uint256"
        }
      ],
      "name": "buyFromOwner",
      "outputs": [],
      "stateMutability": "payable",
      "type": "function"
    },
    {
      "inputs": [],
      "name": "changeApprovalFee",
      "outputs": [
        {
          "internalType": "uint256",
          "name": "",
          "type": "uint256"
        }
      ],
      "stateMutability": "view",
      "type": "function"
    },
    {
      "inputs": [
        {
          "internalType": "uint256",
          "name": "teeIndex",
          "type": "uint256"
        }
      ],
      "name": "changeApprovalRequestToMe",
      "outputs": [],
      "stateMutability": "payable",
      "type": "function"
    },
    {
      "inputs": [
        {
          "internalType": "uint256",
          "name": "teeIndex",
          "type": "uint256"
        },
        {
          "internalType": "uint256",
          "name": "newAmount",
          "type": "uint256"
        }
      ],
      "name": "changePrice",
      "outputs": [],
      "stateMutability": "nonpayable",
      "type": "function"
    },
    {
      "inputs": [],
      "name": "getAllTransfers",
      "outputs": [
        {
          "components": [
            {
              "internalType": "address",
              "name": "from",
              "type": "address"
            },
            {
              "internalType": "address",
              "name": "to",
              "type": "address"
            },
            {
              "internalType": "uint256",
              "name": "teeIndex",
              "type": "uint256"
            },
            {
              "internalType": "uint256",
              "name": "amount",
              "type": "uint256"
            },
            {
              "internalType": "uint256",
              "name": "time",
              "type": "uint256"
            }
          ],
          "internalType": "struct TeePurchase.Transfers[]",
          "name": "",
          "type": "tuple[]"
        }
      ],
      "stateMutability": "view",
      "type": "function"
    },
    {
      "inputs": [],
      "name": "getMyTees",
      "outputs": [
        {
          "components": [
            {
              "internalType": "string",
              "name": "name",
              "type": "string"
            },
            {
              "internalType": "uint256",
              "name": "design",
              "type": "uint256"
            },
            {
              "internalType": "uint256",
              "name": "amount",
              "type": "uint256"
            },
            {
              "internalType": "uint256",
              "name": "id",
              "type": "uint256"
            }
          ],
          "internalType": "struct TeeFactory.Tee[]",
          "name": "",
          "type": "tuple[]"
        }
      ],
      "stateMutability": "view",
      "type": "function"
    },
    {
      "inputs": [
        {
          "internalType": "uint256",
          "name": "from",
          "type": "uint256"
        },
        {
          "internalType": "uint256",
          "name": "to",
          "type": "uint256"
        }
      ],
      "name": "getTransactions",
      "outputs": [
        {
          "components": [
            {
              "internalType": "address",
              "name": "from",
              "type": "address"
            },
            {
              "internalType": "address",
              "name": "to",
              "type": "address"
            },
            {
              "internalType": "uint256",
              "name": "teeIndex",
              "type": "uint256"
            },
            {
              "internalType": "uint256",
              "name": "amount",
              "type": "uint256"
            },
            {
              "internalType": "uint256",
              "name": "time",
              "type": "uint256"
            }
          ],
          "internalType": "struct TeePurchase.Transfers[]",
          "name": "",
          "type": "tuple[]"
        }
      ],
      "stateMutability": "view",
      "type": "function"
    },
    {
      "inputs": [],
      "name": "getTransferLength",
      "outputs": [
        {
          "internalType": "uint256",
          "name": "",
          "type": "uint256"
        }
      ],
      "stateMutability": "view",
      "type": "function"
    },
    {
      "inputs": [
        {
          "internalType": "address",
          "name": "",
          "type": "address"
        }
      ],
      "name": "howManyOwns",
      "outputs": [
        {
          "internalType": "uint256",
          "name": "",
          "type": "uint256"
        }
      ],
      "stateMutability": "view",
      "type": "function"
    },
    {
      "inputs": [],
      "name": "initialAmount",
      "outputs": [
        {
          "internalType": "uint256",
          "name": "",
          "type": "uint256"
        }
      ],
      "stateMutability": "view",
      "type": "function"
    },
    {
      "inputs": [],
      "name": "isOwner",
      "outputs": [
        {
          "internalType": "bool",
          "name": "",
          "type": "bool"
        }
      ],
      "stateMutability": "view",
      "type": "function"
    },
    {
      "inputs": [],
      "name": "owner",
      "outputs": [
        {
          "internalType": "address",
          "name": "",
          "type": "address"
        }
      ],
      "stateMutability": "view",
      "type": "function"
    },
    {
      "inputs": [
        {
          "internalType": "uint256",
          "name": "",
          "type": "uint256"
        }
      ],
      "name": "pendingApproval",
      "outputs": [
        {
          "internalType": "address",
          "name": "",
          "type": "address"
        }
      ],
      "stateMutability": "view",
      "type": "function"
    },
    {
      "inputs": [
        {
          "internalType": "string",
          "name": "_name",
          "type": "string"
        }
      ],
      "name": "purchaseTee",
      "outputs": [],
      "stateMutability": "payable",
      "type": "function"
    },
    {
      "inputs": [],
      "name": "renounceOwnership",
      "outputs": [],
      "stateMutability": "nonpayable",
      "type": "function"
    },
    {
      "inputs": [
        {
          "internalType": "uint256",
          "name": "",
          "type": "uint256"
        }
      ],
      "name": "teeOwner",
      "outputs": [
        {
          "internalType": "address",
          "name": "",
          "type": "address"
        }
      ],
      "stateMutability": "view",
      "type": "function"
    },
    {
      "inputs": [
        {
          "internalType": "uint256",
          "name": "",
          "type": "uint256"
        }
      ],
      "name": "tees",
      "outputs": [
        {
          "internalType": "string",
          "name": "name",
          "type": "string"
        },
        {
          "internalType": "uint256",
          "name": "design",
          "type": "uint256"
        },
        {
          "internalType": "uint256",
          "name": "amount",
          "type": "uint256"
        },
        {
          "internalType": "uint256",
          "name": "id",
          "type": "uint256"
        }
      ],
      "stateMutability": "view",
      "type": "function"
    },
    {
      "inputs": [],
      "name": "totalTeeDesigned",
      "outputs": [
        {
          "internalType": "uint256",
          "name": "",
          "type": "uint256"
        }
      ],
      "stateMutability": "view",
      "type": "function"
    },
    {
      "inputs": [
        {
          "internalType": "address",
          "name": "newOwner",
          "type": "address"
        }
      ],
      "name": "transferOwnership",
      "outputs": [],
      "stateMutability": "nonpayable",
      "type": "function"
    },
    {
      "inputs": [
        {
          "internalType": "address",
          "name": "to",
          "type": "address"
        },
        {
          "internalType": "uint256",
          "name": "teeIndex",
          "type": "uint256"
        }
      ],
      "name": "transferTo",
      "outputs": [],
      "stateMutability": "payable",
      "type": "function"
    },
    {
      "inputs": [
        {
          "internalType": "uint256",
          "name": "",
          "type": "uint256"
        }
      ],
      "name": "transfers",
      "outputs": [
        {
          "internalType": "address",
          "name": "from",
          "type": "address"
        },
        {
          "internalType": "address",
          "name": "to",
          "type": "address"
        },
        {
          "internalType": "uint256",
          "name": "teeIndex",
          "type": "uint256"
        },
        {
          "internalType": "uint256",
          "name": "amount",
          "type": "uint256"
        },
        {
          "internalType": "uint256",
          "name": "time",
          "type": "uint256"
        }
      ],
      "stateMutability": "view",
      "type": "function"
    },
    {
      "inputs": [],
      "name": "withdraw",
      "outputs": [],
      "stateMutability": "nonpayable",
      "type": "function"
    },
    {
      "stateMutability": "payable",
      "type": "receive"
    }
  ],
  "bytecode": "0x60806040526402540be40060015565b5e620f48000600255655af3107a4000600a5534801561002d57600080fd5b50336000806101000a81548173ffffffffffffffffffffffffffffffffffffffff021916908373ffffffffffffffffffffffffffffffffffffffff16021790555060008054906101000a900473ffffffffffffffffffffffffffffffffffffffff1673ffffffffffffffffffffffffffffffffffffffff16600073ffffffffffffffffffffffffffffffffffffffff167f8be0079c531659141344cd1fd0a4f28419497f9722a3daafe3b4186f6b6457e060405160405180910390a3612d6f806100f86000396000f3fe60806040526004361061016a5760003560e01c80638898971a116100d1578063957d77a61161008a578063d14343a111610064578063d14343a114610500578063e73be63814610540578063f2fde38b1461056b578063fc1ed4371461059457610171565b8063957d77a6146104715780639ec34f27146104ae578063b3de019c146104d757610171565b80638898971a146103445780638da5cb5b146103815780638e862240146103ac5780638f32d59b146103c857806390b9aad4146103f35780639377d7111461043057610171565b80633ccfd60b116101235780633ccfd60b1461026757806354b4aa4a1461027e57806368402194146102a9578063715018a6146102d45780637d4061e6146102eb5780637f1a5f951461032857610171565b806302b24674146101735780631f64e71f1461019e5780632a84b3cb146101c75780632ccb1b30146101e357806333a4dfcf146101ff57806336f3f96f1461023c57610171565b3661017157005b005b34801561017f57600080fd5b506101886105bf565b6040516101959190612791565b60405180910390f35b3480156101aa57600080fd5b506101c560048036038101906101c09190612010565b6105c5565b005b6101e160048036038101906101dc9190611fd4565b6106f9565b005b6101fd60048036038101906101f89190612010565b6108a3565b005b34801561020b57600080fd5b506102266004803603810190610221919061208d565b610957565b60405161023391906124de565b60405180910390f35b34801561024857600080fd5b5061025161098a565b60405161025e9190612791565b60405180910390f35b34801561027357600080fd5b5061027c610997565b005b34801561028a57600080fd5b506102936109fe565b6040516102a091906125ea565b60405180910390f35b3480156102b557600080fd5b506102be610b27565b6040516102cb9190612791565b60405180910390f35b3480156102e057600080fd5b506102e9610b2d565b005b3480156102f757600080fd5b50610312600480360381019061030d919061208d565b610bfc565b60405161031f91906124de565b60405180910390f35b610342600480360381019061033d919061204c565b610c2f565b005b34801561035057600080fd5b5061036b600480360381019061036691906120b6565b610ded565b60405161037891906125ea565b60405180910390f35b34801561038d57600080fd5b50610396611015565b6040516103a391906124de565b60405180910390f35b6103c660048036038101906103c1919061208d565b61103e565b005b3480156103d457600080fd5b506103dd611144565b6040516103ea919061260c565b60405180910390f35b3480156103ff57600080fd5b5061041a60048036038101906104159190611fab565b61119b565b6040516104279190612791565b60405180910390f35b34801561043c57600080fd5b506104576004803603810190610452919061208d565b6111b3565b604051610468959493929190612575565b60405180910390f35b34801561047d57600080fd5b506104986004803603810190610493919061208d565b611239565b6040516104a591906124de565b60405180910390f35b3480156104ba57600080fd5b506104d560048036038101906104d0919061208d565b61126c565b005b3480156104e357600080fd5b506104fe60048036038101906104f991906120b6565b611363565b005b34801561050c57600080fd5b506105276004803603810190610522919061208d565b611464565b6040516105379493929190612657565b60405180910390f35b34801561054c57600080fd5b5061055561151c565b60405161056291906125c8565b60405180910390f35b34801561057757600080fd5b50610592600480360381019061058d9190611fab565b611793565b005b3480156105a057600080fd5b506105a96117b0565b6040516105b69190612791565b60405180910390f35b600a5481565b803373ffffffffffffffffffffffffffffffffffffffff166005600083815260200190815260200160002060009054906101000a900473ffffffffffffffffffffffffffffffffffffffff1673ffffffffffffffffffffffffffffffffffffffff1614610667576040517f08c379a000000000000000000000000000000000000000000000000000000000815260040161065e90612751565b60405180910390fd5b826008600084815260200190815260200160002060006101000a81548173ffffffffffffffffffffffffffffffffffffffff021916908373ffffffffffffffffffffffffffffffffffffffff1602179055507f6e11fb1b7f119e3f2fa29896ef5fdf8b8a2d0d4df6fe90ba8668e7d8b2ffa25e3384846040516106ec939291906124f9565b60405180910390a1505050565b3373ffffffffffffffffffffffffffffffffffffffff166008600083815260200190815260200160002060009054906101000a900473ffffffffffffffffffffffffffffffffffffffff1673ffffffffffffffffffffffffffffffffffffffff161461079a576040517f08c379a0000000000000000000000000000000000000000000000000000000008152600401610791906126f1565b60405180910390fd5b600060046000838152602001908152602001600020600201549050803410156107f8576040517f08c379a00000000000000000000000000000000000000000000000000000000081526004016107ef90612711565b60405180910390fd5b8273ffffffffffffffffffffffffffffffffffffffff166108fc349081150290604051600060405180830381858888f1935050505015801561083e573d6000803e3d6000fd5b5060006009600084815260200190815260200160002060006101000a81548173ffffffffffffffffffffffffffffffffffffffff021916908373ffffffffffffffffffffffffffffffffffffffff16021790555061089e833384846117b6565b505050565b803373ffffffffffffffffffffffffffffffffffffffff166005600083815260200190815260200160002060009054906101000a900473ffffffffffffffffffffffffffffffffffffffff1673ffffffffffffffffffffffffffffffffffffffff1614610945576040517f08c379a000000000000000000000000000000000000000000000000000000000815260040161093c90612751565b60405180910390fd5b61095233848460006117b6565b505050565b60056020528060005260406000206000915054906101000a900473ffffffffffffffffffffffffffffffffffffffff1681565b6000600780549050905090565b61099f611144565b6109a857600080fd5b60006109b2611015565b90508073ffffffffffffffffffffffffffffffffffffffff166108fc479081150290604051600060405180830381858888f193505050501580156109fa573d6000803e3d6000fd5b5050565b60606007805480602002602001604051908101604052809291908181526020016000905b82821015610b1e57838290600052602060002090600502016040518060a00160405290816000820160009054906101000a900473ffffffffffffffffffffffffffffffffffffffff1673ffffffffffffffffffffffffffffffffffffffff1673ffffffffffffffffffffffffffffffffffffffff1681526020016001820160009054906101000a900473ffffffffffffffffffffffffffffffffffffffff1673ffffffffffffffffffffffffffffffffffffffff1673ffffffffffffffffffffffffffffffffffffffff168152602001600282015481526020016003820154815260200160048201548152505081526020019060010190610a22565b50505050905090565b60035481565b610b35611144565b610b3e57600080fd5b600073ffffffffffffffffffffffffffffffffffffffff1660008054906101000a900473ffffffffffffffffffffffffffffffffffffffff1673ffffffffffffffffffffffffffffffffffffffff167f8be0079c531659141344cd1fd0a4f28419497f9722a3daafe3b4186f6b6457e060405160405180910390a360008060006101000a81548173ffffffffffffffffffffffffffffffffffffffff021916908373ffffffffffffffffffffffffffffffffffffffff160217905550565b60086020528060005260406000206000915054906101000a900473ffffffffffffffffffffffffffffffffffffffff1681565b6000600254905080341015610c79576040517f08c379a0000000000000000000000000000000000000000000000000000000008152600401610c7090612771565b60405180910390fd5b610c8282611aa3565b60076040518060a001604052803073ffffffffffffffffffffffffffffffffffffffff1681526020013373ffffffffffffffffffffffffffffffffffffffff168152602001600354815260200183815260200142815250908060018154018082558091505060019003906000526020600020906005020160009091909190915060008201518160000160006101000a81548173ffffffffffffffffffffffffffffffffffffffff021916908373ffffffffffffffffffffffffffffffffffffffff16021790555060208201518160010160006101000a81548173ffffffffffffffffffffffffffffffffffffffff021916908373ffffffffffffffffffffffffffffffffffffffff16021790555060408201518160020155606082015181600301556080820151816004015550507fdfd8df322f5054fd8e97306218725d24255f5bb13399975592514a863e81874b600354604051610de191906126c3565b60405180910390a15050565b606060008383610dfd919061292b565b67ffffffffffffffff811115610e3c577f4e487b7100000000000000000000000000000000000000000000000000000000600052604160045260246000fd5b604051908082528060200260200182016040528015610e7557816020015b610e62611dde565b815260200190600190039081610e5a5790505b5090506000808590505b848110156110095760078181548110610ec1577f4e487b7100000000000000000000000000000000000000000000000000000000600052603260045260246000fd5b90600052602060002090600502016040518060a00160405290816000820160009054906101000a900473ffffffffffffffffffffffffffffffffffffffff1673ffffffffffffffffffffffffffffffffffffffff1673ffffffffffffffffffffffffffffffffffffffff1681526020016001820160009054906101000a900473ffffffffffffffffffffffffffffffffffffffff1673ffffffffffffffffffffffffffffffffffffffff1673ffffffffffffffffffffffffffffffffffffffff1681526020016002820154815260200160038201548152602001600482015481525050838381518110610fdd577f4e487b7100000000000000000000000000000000000000000000000000000000600052603260045260246000fd5b60200260200101819052508180610ff390612a5e565b925050808061100190612a5e565b915050610e7f565b50819250505092915050565b60008060009054906101000a900473ffffffffffffffffffffffffffffffffffffffff16905090565b600a5434101561104d57600080fd5b3373ffffffffffffffffffffffffffffffffffffffff166009600083815260200190815260200160002060009054906101000a900473ffffffffffffffffffffffffffffffffffffffff1673ffffffffffffffffffffffffffffffffffffffff1614156110ef576040517f08c379a00000000000000000000000000000000000000000000000000000000081526004016110e6906126a3565b60405180910390fd5b336009600083815260200190815260200160002060006101000a81548173ffffffffffffffffffffffffffffffffffffffff021916908373ffffffffffffffffffffffffffffffffffffffff16021790555050565b60008060009054906101000a900473ffffffffffffffffffffffffffffffffffffffff1673ffffffffffffffffffffffffffffffffffffffff163373ffffffffffffffffffffffffffffffffffffffff1614905090565b60066020528060005260406000206000915090505481565b600781815481106111c357600080fd5b90600052602060002090600502016000915090508060000160009054906101000a900473ffffffffffffffffffffffffffffffffffffffff16908060010160009054906101000a900473ffffffffffffffffffffffffffffffffffffffff16908060020154908060030154908060040154905085565b60096020528060005260406000206000915054906101000a900473ffffffffffffffffffffffffffffffffffffffff1681565b600073ffffffffffffffffffffffffffffffffffffffff166009600083815260200190815260200160002060009054906101000a900473ffffffffffffffffffffffffffffffffffffffff1673ffffffffffffffffffffffffffffffffffffffff161461130e576040517f08c379a000000000000000000000000000000000000000000000000000000000815260040161130590612731565b60405180910390fd5b336009600083815260200190815260200160002060006101000a81548173ffffffffffffffffffffffffffffffffffffffff021916908373ffffffffffffffffffffffffffffffffffffffff16021790555050565b813373ffffffffffffffffffffffffffffffffffffffff166005600083815260200190815260200160002060009054906101000a900473ffffffffffffffffffffffffffffffffffffffff1673ffffffffffffffffffffffffffffffffffffffff1614611405576040517f08c379a00000000000000000000000000000000000000000000000000000000081526004016113fc90612751565b60405180910390fd5b60006004600085815260200190815260200160002090508281600201819055507ffe6b606ca0477592b5740a0eb00c8e91570a5d0eb736abfa1a6309bd081b4a4d84846040516114569291906127ac565b60405180910390a150505050565b6004602052806000526040600020600091509050806000018054611487906129fb565b80601f01602080910402602001604051908101604052809291908181526020018280546114b3906129fb565b80156115005780601f106114d557610100808354040283529160200191611500565b820191906000526020600020905b8154815290600101906020018083116114e357829003601f168201915b5050505050908060010154908060020154908060030154905084565b606060006003549050600080600660003373ffffffffffffffffffffffffffffffffffffffff1673ffffffffffffffffffffffffffffffffffffffff1681526020019081526020016000205467ffffffffffffffff8111156115a7577f4e487b7100000000000000000000000000000000000000000000000000000000600052604160045260246000fd5b6040519080825280602002602001820160405280156115e057816020015b6115cd611e39565b8152602001906001900390816115c55790505b50905060005b83811015611789573373ffffffffffffffffffffffffffffffffffffffff166005600083815260200190815260200160002060009054906101000a900473ffffffffffffffffffffffffffffffffffffffff1673ffffffffffffffffffffffffffffffffffffffff1614156117765760046000828152602001908152602001600020604051806080016040529081600082018054611683906129fb565b80601f01602080910402602001604051908101604052809291908181526020018280546116af906129fb565b80156116fc5780601f106116d1576101008083540402835291602001916116fc565b820191906000526020600020905b8154815290600101906020018083116116df57829003601f168201915b50505050508152602001600182015481526020016002820154815260200160038201548152505082848151811061175c577f4e487b7100000000000000000000000000000000000000000000000000000000600052603260045260246000fd5b6020026020010181905250828061177290612a5e565b9350505b808061178190612a5e565b9150506115e6565b5080935050505090565b61179b611144565b6117a457600080fd5b6117ad81611abe565b50565b60025481565b6118096001600660008773ffffffffffffffffffffffffffffffffffffffff1673ffffffffffffffffffffffffffffffffffffffff16815260200190815260200160002054611bb590919063ffffffff16565b600660008673ffffffffffffffffffffffffffffffffffffffff1673ffffffffffffffffffffffffffffffffffffffff16815260200190815260200160002081905550826005600084815260200190815260200160002060006101000a81548173ffffffffffffffffffffffffffffffffffffffff021916908373ffffffffffffffffffffffffffffffffffffffff1602179055506118f16001600660008673ffffffffffffffffffffffffffffffffffffffff1673ffffffffffffffffffffffffffffffffffffffff16815260200190815260200160002054611bcb90919063ffffffff16565b600660008573ffffffffffffffffffffffffffffffffffffffff1673ffffffffffffffffffffffffffffffffffffffff1681526020019081526020016000208190555060076040518060a001604052808673ffffffffffffffffffffffffffffffffffffffff1681526020018573ffffffffffffffffffffffffffffffffffffffff16815260200184815260200183815260200142815250908060018154018082558091505060019003906000526020600020906005020160009091909190915060008201518160000160006101000a81548173ffffffffffffffffffffffffffffffffffffffff021916908373ffffffffffffffffffffffffffffffffffffffff16021790555060208201518160010160006101000a81548173ffffffffffffffffffffffffffffffffffffffff021916908373ffffffffffffffffffffffffffffffffffffffff16021790555060408201518160020155606082015181600301556080820151816004015550507f9ed053bb818ff08b8353cd46f78db1f0799f31c9e4458fdb425c10eccd2efc4484848484604051611a959493929190612530565b60405180910390a150505050565b6000611aae82611be1565b9050611aba8282611c23565b5050565b600073ffffffffffffffffffffffffffffffffffffffff168173ffffffffffffffffffffffffffffffffffffffff161415611af857600080fd5b8073ffffffffffffffffffffffffffffffffffffffff1660008054906101000a900473ffffffffffffffffffffffffffffffffffffffff1673ffffffffffffffffffffffffffffffffffffffff167f8be0079c531659141344cd1fd0a4f28419497f9722a3daafe3b4186f6b6457e060405160405180910390a3806000806101000a81548173ffffffffffffffffffffffffffffffffffffffff021916908373ffffffffffffffffffffffffffffffffffffffff16021790555050565b60008183611bc3919061292b565b905092915050565b60008183611bd991906128d5565b905092915050565b60006001548242604051602001611bf99291906124b6565b6040516020818303038152906040528051906020012060001c611c1c9190612ab1565b9050919050565b600060035490506040518060800160405280848152602001838152602001600254815260200182815250600460008381526020019081526020016000206000820151816000019080519060200190611c7c929190611e61565b50602082015181600101556040820151816002015560608201518160030155905050336005600083815260200190815260200160002060006101000a81548173ffffffffffffffffffffffffffffffffffffffff021916908373ffffffffffffffffffffffffffffffffffffffff160217905550611d436001600660003373ffffffffffffffffffffffffffffffffffffffff1673ffffffffffffffffffffffffffffffffffffffff16815260200190815260200160002054611bcb90919063ffffffff16565b600660003373ffffffffffffffffffffffffffffffffffffffff1673ffffffffffffffffffffffffffffffffffffffff16815260200190815260200160002081905550611d9a600182611bcb90919063ffffffff16565b6003819055507ff4b0128ed0fec9f969434b612feed38ec13590881e9c727b2cdcf438bcb664ea8383604051611dd1929190612627565b60405180910390a1505050565b6040518060a00160405280600073ffffffffffffffffffffffffffffffffffffffff168152602001600073ffffffffffffffffffffffffffffffffffffffff1681526020016000815260200160008152602001600081525090565b6040518060800160405280606081526020016000815260200160008152602001600081525090565b828054611e6d906129fb565b90600052602060002090601f016020900481019282611e8f5760008555611ed6565b82601f10611ea857805160ff1916838001178555611ed6565b82800160010185558215611ed6579182015b82811115611ed5578251825591602001919060010190611eba565b5b509050611ee39190611ee7565b5090565b5b80821115611f00576000816000905550600101611ee8565b5090565b6000611f17611f12846127fa565b6127d5565b905082815260208101848484011115611f2f57600080fd5b611f3a8482856129b9565b509392505050565b600081359050611f5181612cf4565b92915050565b600081359050611f6681612d0b565b92915050565b600082601f830112611f7d57600080fd5b8135611f8d848260208601611f04565b91505092915050565b600081359050611fa581612d22565b92915050565b600060208284031215611fbd57600080fd5b6000611fcb84828501611f42565b91505092915050565b60008060408385031215611fe757600080fd5b6000611ff585828601611f57565b925050602061200685828601611f96565b9150509250929050565b6000806040838503121561202357600080fd5b600061203185828601611f42565b925050602061204285828601611f96565b9150509250929050565b60006020828403121561205e57600080fd5b600082013567ffffffffffffffff81111561207857600080fd5b61208484828501611f6c565b91505092915050565b60006020828403121561209f57600080fd5b60006120ad84828501611f96565b91505092915050565b600080604083850312156120c957600080fd5b60006120d785828601611f96565b92505060206120e885828601611f96565b9150509250929050565b60006120fe83836123b6565b905092915050565b60006121128383612419565b60a08301905092915050565b6121278161295f565b82525050565b6121368161295f565b82525050565b60006121478261284b565b6121518185612886565b9350836020820285016121638561282b565b8060005b8581101561219f578484038952815161218085826120f2565b945061218b8361286c565b925060208a01995050600181019050612167565b50829750879550505050505092915050565b60006121bc82612856565b6121c68185612897565b93506121d18361283b565b8060005b838110156122025781516121e98882612106565b97506121f483612879565b9250506001810190506121d5565b5085935050505092915050565b61221881612983565b82525050565b600061222982612861565b61223381856128a8565b93506122438185602086016129c8565b61224c81612b9e565b840191505092915050565b600061226282612861565b61226c81856128b9565b935061227c8185602086016129c8565b61228581612b9e565b840191505092915050565b600061229b82612861565b6122a581856128ca565b93506122b58185602086016129c8565b80840191505092915050565b60006122ce601e836128b9565b91506122d982612baf565b602082019050919050565b60006122f16009836128b9565b91506122fc82612bd8565b602082019050919050565b6000612314601b836128b9565b915061231f82612c01565b602082019050919050565b6000612337601a836128b9565b915061234282612c2a565b602082019050919050565b600061235a601a836128b9565b915061236582612c53565b602082019050919050565b600061237d6027836128b9565b915061238882612c7c565b604082019050919050565b60006123a0601c836128b9565b91506123ab82612ccb565b602082019050919050565b600060808301600083015184820360008601526123d3828261221e565b91505060208301516123e86020860182612481565b5060408301516123fb6040860182612481565b50606083015161240e6060860182612481565b508091505092915050565b60a08201600082015161242f600085018261211e565b506020820151612442602085018261211e565b5060408201516124556040850182612481565b5060608201516124686060850182612481565b50608082015161247b6080850182612481565b50505050565b61248a816129af565b82525050565b612499816129af565b82525050565b6124b06124ab826129af565b612aa7565b82525050565b60006124c28285612290565b91506124ce828461249f565b6020820191508190509392505050565b60006020820190506124f3600083018461212d565b92915050565b600060608201905061250e600083018661212d565b61251b602083018561212d565b6125286040830184612490565b949350505050565b6000608082019050612545600083018761212d565b612552602083018661212d565b61255f6040830185612490565b61256c6060830184612490565b95945050505050565b600060a08201905061258a600083018861212d565b612597602083018761212d565b6125a46040830186612490565b6125b16060830185612490565b6125be6080830184612490565b9695505050505050565b600060208201905081810360008301526125e2818461213c565b905092915050565b6000602082019050818103600083015261260481846121b1565b905092915050565b6000602082019050612621600083018461220f565b92915050565b600060408201905081810360008301526126418185612257565b90506126506020830184612490565b9392505050565b600060808201905081810360008301526126718187612257565b90506126806020830186612490565b61268d6040830185612490565b61269a6060830184612490565b95945050505050565b600060208201905081810360008301526126bc816122c1565b9050919050565b600060408201905081810360008301526126dc816122e4565b90506126eb6020830184612490565b92915050565b6000602082019050818103600083015261270a81612307565b9050919050565b6000602082019050818103600083015261272a8161232a565b9050919050565b6000602082019050818103600083015261274a8161234d565b9050919050565b6000602082019050818103600083015261276a81612370565b9050919050565b6000602082019050818103600083015261278a81612393565b9050919050565b60006020820190506127a66000830184612490565b92915050565b60006040820190506127c16000830185612490565b6127ce6020830184612490565b9392505050565b60006127df6127f0565b90506127eb8282612a2d565b919050565b6000604051905090565b600067ffffffffffffffff82111561281557612814612b6f565b5b61281e82612b9e565b9050602081019050919050565b6000819050602082019050919050565b6000819050602082019050919050565b600081519050919050565b600081519050919050565b600081519050919050565b6000602082019050919050565b6000602082019050919050565b600082825260208201905092915050565b600082825260208201905092915050565b600082825260208201905092915050565b600082825260208201905092915050565b600081905092915050565b60006128e0826129af565b91506128eb836129af565b9250827fffffffffffffffffffffffffffffffffffffffffffffffffffffffffffffffff038211156129205761291f612ae2565b5b828201905092915050565b6000612936826129af565b9150612941836129af565b92508282101561295457612953612ae2565b5b828203905092915050565b600061296a8261298f565b9050919050565b600061297c8261298f565b9050919050565b60008115159050919050565b600073ffffffffffffffffffffffffffffffffffffffff82169050919050565b6000819050919050565b82818337600083830152505050565b60005b838110156129e65780820151818401526020810190506129cb565b838111156129f5576000848401525b50505050565b60006002820490506001821680612a1357607f821691505b60208210811415612a2757612a26612b40565b5b50919050565b612a3682612b9e565b810181811067ffffffffffffffff82111715612a5557612a54612b6f565b5b80604052505050565b6000612a69826129af565b91507fffffffffffffffffffffffffffffffffffffffffffffffffffffffffffffffff821415612a9c57612a9b612ae2565b5b600182019050919050565b6000819050919050565b6000612abc826129af565b9150612ac7836129af565b925082612ad757612ad6612b11565b5b828206905092915050565b7f4e487b7100000000000000000000000000000000000000000000000000000000600052601160045260246000fd5b7f4e487b7100000000000000000000000000000000000000000000000000000000600052601260045260246000fd5b7f4e487b7100000000000000000000000000000000000000000000000000000000600052602260045260246000fd5b7f4e487b7100000000000000000000000000000000000000000000000000000000600052604160045260246000fd5b6000601f19601f8301169050919050565b7f416c726561647920596f752061736b656420666f7220417070726f76616c0000600082015250565b7f5075726368617365640000000000000000000000000000000000000000000000600082015250565b7f596f7520617265206e6f7420617070726f76656420746f206275790000000000600082015250565b7f496e73756666696369656e742065746865727320746f20627579000000000000600082015250565b7f416c72656164792061736b656420666f7220417070726f76616c000000000000600082015250565b7f4f6e6c79206f776e6572206f6620746865206974656d2063616e206d616b652060008201527f6368616e67657300000000000000000000000000000000000000000000000000602082015250565b7f4e6f7420656e6f75676820657468657220746f20707572636861736500000000600082015250565b612cfd8161295f565b8114612d0857600080fd5b50565b612d1481612971565b8114612d1f57600080fd5b50565b612d2b816129af565b8114612d3657600080fd5b5056fea2646970667358221220ca533e965218cd113f712b18d9fdcf15b6e07af9fb99be7ecc681bf89764456764736f6c63430008040033",
  "linkReferences": {},
  "deployedLinkReferences": {}
}